:06A0000002A00B02AFDA22
:07A06400752100E4F52AF567
:05A06B002BE4F52EF5C9
:08A070002F90FFF07402F09044
:0CA07800FFF174A0F090FFF27403F09070
:0CA08400FFF67402F090FFF774A0F0905B
:05A09000FFF87413F05D
:03A0950002A00620
:05A0060012B31F80FEF3
:03A09800C2B4222D
:03A09B00D2B4221A
:03A09E00C2B52226
:03A0A100D2B52213
:0CA0A400E582FAC4540FFB8B0874302BCB
:0AA0B000F50853020F8A0974302AE4
:06A0BA00F509750A009093
:06A0C000000875F04022CB
:0CA0C6007590FFC2902094047582462221
:07A0D2002095047582452270
:07A0D9002096047582442269
:07A0E0002097047582432262
:0CA0E7007590FFC2912094047582332212
:07A0F3002095047582322262
:07A0FA00209604758231225B
:07A101002097047582302253
:0CA108007590FFC29220940475824222E0
:07A114002095047582412231
:07A11B002096047582392231
:07A12200209704758238222A
:0CA129007590FFC29320940475823722C9
:07A13500209504758236221B
:07A13C002096047582352214
:07A14300209704758234220D
:04A14A0075820022F8
:09A14E0012A0C6AA827B007C006D
:0EA15700C3EB94B8EC6480948B5025C002C01A
:0EA1650003C00412A0C6AD82D004D003D00205
:07A17300EAB50503ED7006DB
:06A17A007BFF7CFF8D025B
:07A180000BBB00D30C80D0E3
:03A187008A8222A7
:04A18A007A007B00DC
:0EA18E00C3EA94B8EB6480948B501AC002C0F0
:0EA19C000312A0C6E582D003D00260047AFF51
:02A1AA007BFF39
:07A1AC000ABA00DE0B80DBA4
:01A1B3002289
:0EA1B400AA82C374B98AF063F08095F0500659
:06A1C200EA24C9F5822227
:06A1C800EA24D0F582221A
:04A1CE00AA82AB8333
:0EA1D200C3E49A74808BF063F08095F0502007
:04A1E0007C327D0050
:0EA1E400C3E49C74808DF063F08095F050070A
:07A1F2001CBCFFEE1D80EB19
:07A1F9001ABAFFD51B80D24A
:01A20000223B
:0EA20100AA82AB83900002C002C00312A1CE5D
:0AA20F00D003D002902000EAF022F4
:04A21900AA82AB83E7
:0EA21D00902020E0548070F8902010EAF0228B
:06A22B00AA82AB83ACF037
:0EA231008A828B838CF012B422FD601C7E00AA
:0EA23F008D828E83C002C003C00412A219D00B
:0CA24D0004D003D0020ABA00DB0B80D85A
:01A2590022E2
:0DA25A0090003812A20190000C12A2019099
:05A26700000602A20147
:06A26C0090000102A201B6
:0EA27200AA82AB83900080C002C00312A2013A
:0EA28000D003D002BA0109BB00069000800294
:02A28E00A2012B
:06A290009000C002A201D3
:0DA2960090210B7492F090210A7420F0903A
:07A2A300210BE0547FF022C3
:0DA2AA00AAA853A8EF90210BE0FB4480F020
:0CA2B700C00212A26C90B44275F080123C
:06A2C300A22B12A14E12B5
:08A2C900A1B4E582D002F530DA
:0AA2D100E53020E70DC374898530E5
:08A2DB00F063F08095F05017CC
:07A2E300740FB5300280107A
:0DA2EA00C00212A14E12A1B4E582D002F50F
:03A2F7003080D7DD
:07A2FA00740FB5300280B6BD
:0CA30100E530FB3395E0FC74302BF58256
:0DA30D00E43CF583C00212A21912A14E1209
:08A31A00A1B4E582D002F53187
:0AA32200E53120E70DC37489853191
:08A32C00F063F08095F050177A
:07A33400740FB53102801027
:0DA33B00C00212A14E12A1B4E582D002F5BD
:03A348003180D78A
:08A34B00740FB5310302A2B743
:0AA35300AB31E5313395E0FC7430C6
:0DA35D002BF582E43CF583C00212A2191218
:09A36A00A14E12A1B4AB82D00295
:05A37300BB0E02801387
:05A37800BB0F02800E86
:0EA37D00C00212A14E12A1B4AB82D00280E841
:06A38B00BB0F0302A2B7A4
:0CA39100BB0E0DE530C454F0FC90210917
:04A39D00E5312CF08A
:0CA3A100C00212A26C90B44F75F0801244
:06A3AD00A22B12A14E12CA
:08A3B300A1B4E582D002F530EF
:0AA3BB00E53020E70DC374898530FA
:08A3C500F063F08095F05017E1
:07A3CD00740FB5300280108F
:0DA3D400C00212A14E12A1B4E582D002F524
:03A3E1003080D7F2
:07A3E400740FB5300280B6D2
:0CA3EB00E530FC3395E0FD74302CF58269
:0DA3F700E43DF583C00212A21912A14E121E
:08A40400A1B4E582D002F5319C
:0AA40C00E53120E70DC374898531A6
:08A41600F063F08095F050178F
:07A41E00740FB5310280103C
:0DA42500C00212A14E12A1B4E582D002F5D2
:03A432003180D79F
:08A43500740FB5310302A3A16D
:0AA43D00AC31E5313395E0FD7430D9
:0DA447002CF582E43DF583C00212A219122B
:09A45400A14E12A1B4AB82D002AA
:05A45D00BB0E0280139C
:05A46200BB0F02800E9B
:0EA46700C00212A14E12A1B4AB82D00280E856
:06A47500BB0F0302A3A1CE
:0CA47B00BB0E0DE530C454F0FC9021082D
:04A48700E5312CF09F
:0CA48B00C00212A26C90B45C75F080124C
:06A49700A22B12A14E12DF
:08A49D00A1B4E582D002F53004
:0AA4A500E53020E70DC3748985300F
:08A4AF00F063F08095F05017F6
:07A4B700740FB530028010A4
:0DA4BE00C00212A14E12A1B4E582D002F539
:03A4CB003080D707
:07A4CE00740FB5300280B6E7
:0CA4D500E530FC3395E0FD74302CF5827E
:0DA4E100E43DF583C00212A21912A14E1233
:08A4EE00A1B4E582D002F531B2
:0AA4F600E53120E70DC374898531BC
:08A50000F063F08095F05017A4
:07A50800740FB53102801051
:0DA50F00C00212A14E12A1B4E582D002F5E7
:03A51C003180D7B4
:08A51F00740FB5310302A48B97
:0AA52700AC31E5313395E0FD7430EE
:0DA531002CF582E43DF583C00212A2191240
:09A53E00A14E12A1B4AB82D002BF
:05A54700BB0E028013B1
:05A54C00BB0F02800EB0
:0EA55100C00212A14E12A1B4AB82D00280E86B
:06A55F00BB0F0302A48BF8
:0CA56500BB0E0DE530C454F0FC90210743
:04A57100E5312CF0B4
:0CA57500C00212A26C90B46975F0801254
:06A58100A22B12A14E12F4
:08A58700A1B4E582D002F53019
:0AA58F00E53020E70DC37489853024
:08A59900F063F08095F050170B
:07A5A100740FB530028010B9
:0DA5A800C00212A14E12A1B4E582D002F54E
:03A5B5003080D71C
:07A5B800740FB5300280B6FC
:0CA5BF00E530FC3395E0FD74302CF58293
:0DA5CB00E43DF583C00212A21912A14E1248
:08A5D800A1B4E582D002F531C7
:0AA5E000E53120E70DC374898531D1
:08A5EA00F063F08095F05017BA
:07A5F200740FB53102801067
:0DA5F900C00212A14E12A1B4E582D002F5FD
:03A606003180D7C9
:08A60900740FB5310302A575C1
:0AA61100AC31E5313395E0FD743003
:0DA61B002CF582E43DF583C00212A2191255
:09A62800A14E12A1B4AB82D002D4
:05A63100BB0E028013C6
:05A63600BB0F02800EC5
:0EA63B00C00212A14E12A1B4AB82D00280E880
:06A64900BB0F0302A57522
:0CA64F00BB0E0DE530C454F0FC90210659
:04A65B00E5312CF0C9
:0CA65F00C00212A26C90B47875F080125A
:06A66B00A22B12A14E1209
:08A67100A1B4E582D002F5302E
:0AA67900E53020E70DC37489853039
:08A68300F063F08095F0501720
:07A68B00740FB530028010CE
:0DA69200C00212A14E12A1B4E582D002F563
:03A69F003080D731
:07A6A200740FB5300280B611
:0CA6A900E530FC3395E0FD74302CF582A8
:0DA6B500E43DF583C00212A21912A14E125D
:08A6C200A1B4E582D002F531DC
:0AA6CA00E53120E70DC374898531E6
:08A6D400F063F08095F05017CF
:07A6DC00740FB5310280107C
:0DA6E300C00212A14E12A1B4E582D002F512
:03A6F0003180D7DF
:08A6F300740FB5310302A65FEC
:0AA6FB00AC31E5313395E0FD743019
:0DA705002CF582E43DF583C00212A219126A
:09A71200A14E12A1B4AB82D002E9
:05A71B00BB0E028013DB
:05A72000BB0F02800EDA
:0EA72500C00212A14E12A1B4AB82D00280E895
:06A73300BB0F0302A65F4C
:0CA73900BB0E0DE530C454F0FC90210470
:04A74500E5312CF0DE
:0CA74900C00212A26C90B48675F0801261
:06A75500A22B12A14E121E
:08A75B00A1B4E582D002F53043
:0AA76300E53020E70DC3748985304E
:08A76D00F063F08095F0501735
:07A77500740FB530028010E3
:0DA77C00C00212A14E12A1B4E582D002F578
:03A789003080D746
:07A78C00740FB5300280B626
:0CA79300E530FC3395E0FD74302CF582BD
:0DA79F00E43DF583C00212A21912A14E1272
:08A7AC00A1B4E582D002F531F1
:0AA7B400E53120E70DC374898531FB
:08A7BE00F063F08095F05017E4
:07A7C600740FB53102801091
:0DA7CD00C00212A14E12A1B4E582D002F527
:03A7DA003180D7F4
:08A7DD00740FB5310302A74916
:0AA7E500AC31E5313395E0FD74302E
:0DA7EF002CF582E43DF583C00212A2191280
:09A7FC00A14E12A1B4AB82D002FF
:05A80500BB0E028013F0
:05A80A00BB0F02800EEF
:0EA80F00C00212A14E12A1B4AB82D00280E8AA
:06A81D00BB0F0302A74976
:0CA82300BB0E0DE530C454F0FC90210287
:04A82F00E5312CF0F3
:0CA83300C00212A26C90B49375F0801269
:06A83F00A22B12A14E1233
:08A84500A1B4E582D002F53058
:0AA84D00E53020E70DC37489853063
:08A85700F063F08095F050174A
:07A85F00740FB530028010F8
:0DA86600C00212A14E12A1B4E582D002F58D
:03A873003080D75B
:07A87600740FB5300280B63B
:0CA87D00E530FC3395E0FD74302CF582D2
:0DA88900E43DF583C00212A21912A14E1287
:08A89600A1B4E582D002F53106
:0AA89E00E53120E70DC37489853110
:08A8A800F063F08095F05017F9
:07A8B000740FB531028010A6
:0DA8B700C00212A14E12A1B4E582D002F53C
:03A8C4003180D709
:08A8C700740FB5310302A83340
:0AA8CF00AC31E5313395E0FD743043
:0DA8D9002CF582E43DF583C00212A2191295
:09A8E600A14E12A1B4AB82D00214
:05A8EF00BB0E02801306
:05A8F400BB0F02800E05
:0EA8F900C00212A14E12A1B4AB82D00280E8C0
:06A90700BB0F0302A833A0
:0CA90D00BB0E0DE530C454F0FB9021009F
:04A91900E5312BF009
:0AA91D008AA890210BE0547FF0227D
:0DA92700AAA853A8EF90210BE0FB4480F09C
:0CA93400C00212A26C90B4A075F080125A
:09A94000A22B90000212A27290F9
:09A94900B4AC75F08012A22B12CF
:0AA95200A14E12A1B4E582D002F577
:01A95C0022D8
:0CA95D00E522FB20E70CC374898BF0633B
:06A96900F08095F050178C
:07A96F00740FB522028010F5
:0DA97600C00212A14E12A1B4E582D002F57C
:03A983002280D758
:07A98600AB22BB0F0280A70A
:0EA98D00EB3395E0FC74302BF582E43CF5834F
:09A99B00C00212A21912A14E1211
:08A9A400A1B4E582D002F52305
:0CA9AC00E523FB20E70CC374898BF063EB
:06A9B800F08095F050173D
:07A9BE00740FB523028010A5
:0DA9C500C00212A14E12A1B4E582D002F52D
:03A9D2002380D708
:08A9D500AB23BB0F0302A93400
:0EA9DD00EB3395E0FC74302BF582E43CF583FF
:09A9EB00C00212A21912A14E12C1
:08A9F400A1B4E582D002F524B4
:0CA9FC00E524FB20E70CC374898BF0639A
:06AA0800F08095F05017EC
:07AA0E00740FB52402801053
:0DAA1500C00212A14E12A1B4E582D002F5DC
:03AA22002480D7B6
:08AA2500AB24BB0F0302A934AE
:0EAA2D00EB3395E0FC74302BF582E43CF583AE
:09AA3B00C00212A21912A14E1270
:08AA4400A1B4E582D002F52562
:0CAA4C00E525FB20E70CC374898BF06348
:06AA5800F08095F050179C
:07AA5E00740FB52502801002
:0DAA6500C00212A14E12A1B4E582D002F58C
:03AA72002580D765
:08AA7500AB25BB0F0302A9345D
:0EAA7D00EB3395E0FC74302BF582E43CF5835E
:09AA8B00C00212A21912A14E1220
:06AA9400A1B4AB82D00268
:05AA9A00BB0E02801359
:05AA9F00BB0F02800E58
:0EAAA400C00212A14E12A1B4AB82D00280E813
:06AAB200BB0F0302A934F2
:0AAAB800BB0E6BE522F5083395E0B4
:0CAAC200F5099003E8C00212B3B8AC82A2
:0CAACE00AD83D002C2D575F064E52330E2
:06AADA00E704B2D5F4040C
:0EAAE000A430D50AF42401C5F0F43400C5F00A
:0CAAEE002CFCED35F0FDC2D575F00AE53A
:08AAFA002430E704B2D5F40496
:0EAB0200A430D50AF42401C5F0F43400C5F0E7
:0AAB10002CFCED35F0FDAE25E52527
:0BAB1A003395E0FFEE2CF526EF3DF533
:01AB25002708
:0CAB2600C00212A26C90B4B975F080124D
:06AB3200A22B12A14E123D
:08AB3800A1B4E582D002F53260
:0AAB4000E53220E70DC37489853269
:08AB4A00F063F08095F0501754
:07AB5200740FB53202801000
:0DAB5900C00212A14E12A1B4E582D002F597
:03AB66003280D763
:07AB6900740FB5320280B643
:0CAB7000E532FC3395E0FD74302CF582DA
:0DAB7C00E43DF583C00212A21912A14E1291
:08AB8900A1B4E582D002F5330E
:0AAB9100E53320E70DC37489853316
:08AB9B00F063F08095F0501703
:07ABA300740FB533028010AE
:0DABAA00C00212A14E12A1B4E582D002F546
:03ABB7003380D711
:08ABBA00740FB5330302AB2652
:0AABC200AC33E5333395E0FD743049
:0DABCC002CF582E43DF583C00212A219129F
:09ABD900A14E12A1B4AB82D0021E
:05ABE200BB0E02801310
:05ABE700BB0F02800E0F
:0EABEC00C00212A14E12A1B4AB82D00280E8CA
:06ABFA00BB0F0302AB26B5
:0CAC0000BB0E0DE532C454F0FC902105A1
:04AC0C00E5332CF010
:0CAC1000C00212A26C90B4C875F0801253
:06AC1C00A22B12A14E1252
:08AC2200A1B4E582D002F53275
:0AAC2A00E53220E70DC3748985327E
:08AC3400F063F08095F0501769
:07AC3C00740FB53202801015
:0DAC4300C00212A14E12A1B4E582D002F5AC
:03AC50003280D778
:07AC5300740FB5320280B658
:0CAC5A00E532FC3395E0FD74302CF582EF
:0DAC6600E43DF583C00212A21912A14E12A6
:08AC7300A1B4E582D002F53323
:0AAC7B00E53320E70DC3748985332B
:08AC8500F063F08095F0501718
:07AC8D00740FB533028010C3
:0DAC9400C00212A14E12A1B4E582D002F55B
:03ACA1003380D726
:08ACA400740FB5330302AC107C
:0AACAC00AC33E5333395E0FD74305E
:0DACB6002CF582E43DF583C00212A21912B4
:09ACC300A14E12A1B4AB82D00233
:05ACCC00BB0E02801325
:05ACD100BB0F02800E24
:0EACD600C00212A14E12A1B4AB82D00280E8DF
:06ACE400BB0F0302AC10DF
:0CACEA00BB0E0DE532C454F0FC902103B9
:04ACF600E5332CF026
:0CACFA00C00212A26C90B4D775F080125A
:06AD0600A22B12A14E1267
:08AD0C00A1B4E582D002F5328A
:0AAD1400E53220E70DC37489853293
:08AD1E00F063F08095F050177E
:07AD2600740FB5320280102A
:0DAD2D00C00212A14E12A1B4E582D002F5C1
:03AD3A003280D78D
:07AD3D00740FB5320280B66D
:0CAD4400E532FC3395E0FD74302CF58204
:0DAD5000E43DF583C00212A21912A14E12BB
:08AD5D00A1B4E582D002F53338
:0AAD6500E53320E70DC37489853340
:08AD6F00F063F08095F050172D
:07AD7700740FB533028010D8
:0DAD7E00C00212A14E12A1B4E582D002F570
:03AD8B003380D73B
:08AD8E00740FB5330302ACFAA7
:0AAD9600AC33E5333395E0FD743073
:0DADA0002CF582E43DF583C00212A21912C9
:09ADAD00A14E12A1B4AB82D00248
:05ADB600BB0E0280133A
:05ADBB00BB0F02800E39
:0EADC000C00212A14E12A1B4AB82D00280E8F4
:06ADCE00BB0F0302ACFA0A
:0CADD400BB0E0DE532C454F0FB902101D1
:04ADE000E5332BF03C
:0CADE400C00212A26C90B4E675F0801260
:09ADF000A22B90000212A2729045
:09ADF900B4F575F08012A22B12D2
:0AAE0200A14E12A1B4AB82D0028B66
:0CAE0C0032BB010A90210BE0FB54DFF088
:02AE18008008B0
:08AE1A0090210BE0FB4420F045
:0DAE220090210BE0547FF08AA812A26C90E2
:08AE2F00B50175F08002A22BB1
:0EAE370012A26C90000112A272902107E0F5A9
:08AE45008212A0A412A22B90BE
:0EAE4D00B50875F08012A22B902108E0F58266
:07AE5B0012A0A412A22B902B
:0EAE6200B50875F08012A22B902109E0F58250
:07AE700012A0A412A22B9016
:0EAE7700B50A75F08012A22B902106E0FA7445
:04AE850007B502000B
:05AE8900500302AEF8C9
:07AE8E00EA2A2A90AE957339
:07AE950002AEF802AEAD02AF
:06AE9C00AEB802AEC302D5
:06AEA200AECE02AED902A3
:05AEA800AEE402AEEF74
:0BAEAD0090B50C75F08012A22B8040C5
:0BAEB80090B51075F08012A22B8035C1
:0BAEC30090B51475F08012A22B802ABD
:0BAECE0090B51875F08012A22B801FB9
:0BAED90090B51C75F08012A22B8014B5
:0BAEE40090B52075F08012A22B8009B1
:09AEEF0090B52475F08012A22B2D
:0DAEF80090000212A272902104E0F5821277
:06AF0500A0A412A22B9093
:0EAF0B00B52875F08012A22B902102E0F5828D
:07AF190012A0A412A22B906C
:0EAF2000B52875F08012A22B902100E0F5827A
:07AF2E0012A0A412A22B9057
:08AF3500B50A75F08002A22BA1
:0CAF3D00902200E0FA7B008A828B8322C5
:0EAF490012AF3DE583C58225E0C58233F58356
:01AF570022D7
:0EAF580012AF49AA82AB83C3EA94E6EB9400E1
:0EAF6600500DC002C00312A09ED003D0028086
:01AF740014C8
:0EAF7500C374049A74019B500BC002C00312F7
:06AF8300A0A1D003D002E2
:0AAF89007508647509008A828B8345
:0EAF9300C002C00312B38FAC82D003D0027490
:08AFA100302CF53475080A7527
:0AAFA90009008A828B8312B38F75B2
:06AFB300080A75090012F6
:0AAFB900B3D5AA8274302AF535756D
:06AFC300366F7537439064
:0EAFC900003475F04012A22B902200E4F0221A
:03AFD70002AF586E
:0CAFDA00C020C0E0C0F0C082C083C002F4
:0EAFE600C003C004C005C006C007C000C00103
:0EAFF400C0D075D01090210CE0FA74205AFBEA
:05B00200BB20028003E9
:03B0070002B2EDA5
:0EB00A00C01275D00012AF4975D010AB82ACE9
:0EB0180083D012902200E4F0C3EB94E6EC9497
:0EB0260000400B74049B74019C400302B0C0F8
:07B03400E52A452B60030231
:02B03B00B0C0A3
:0EB03D00902103E0FB53130FBB092090210369
:07B04B00E0FBBB5902801677
:0DB05200902103E054F0F0902103E0FB900A
:09B05F00210374102BF002B2DA97
:0EB06800902103E0FBBB5943902103E4F090DC
:0EB076002105E0FB53130FBB0916902105E0E6
:0EB0840054F0F0902105E0FB90210574102B94
:04B09200F002B2DA3C
:0EB09600902105E0FBBB2308902105E4F002A9
:02B0A400B2DA1E
:0DB0A600902105E0FB90210504F002B2DAD4
:0DB0B300902103E0FB90210304F002B2DACB
:07B0C000E52A452B600302A5
:02B0C700B2B71E
:0AB0C900752A01752B00C01275D026
:0BB0D3000012A09875D010750884755D
:06B0DE00090385268285AE
:0CB0E400278375D00012B3D575D01085FD
:06B0F0008228858329750A
:06B0F600088475090385C2
:09B0FC00268285278375D000121D
:0AB10500B38F75D010858226858374
:07B10F0027D012E4F52CF536
:01B116002D0B
:06B11700C3E52C9526E5BE
:06B11D002D9527400302FE
:02B12300B1ACCD
:0EB12500902103E0FB53130FBB091F90210381
:07B13300E0FBBB590280158F
:0DB13A00902103E054F0F0902103E0FB9021
:08B14700210374102BF080526B
:0EB14F00902103E0FBBB5940902103E4F090F7
:0EB15D002105E0FB53130FBB0915902105E0FF
:0EB16B0054F0F0902105E0FB90210574102BAC
:03B17900F080253E
:0EB17C00902105E0FBBB2307902105E4F08045
:01B18A0016AE
:0CB18B00902105E0FB90210504F0800AF3
:0AB19700902103E0FB90210304F077
:07B1A100052CE4B52C0205AA
:01B1A8002D79
:03B1A90002B117D9
:07B1AC0075080F750900850D
:0AB1B3002882852983C01275D000A0
:0BB1BD0012B38F75D0108582288583A7
:07B1C80029D012E4F52CF57B
:01B1CF002D52
:06B1D000C3E52C9528E503
:06B1D6002D952940030243
:02B1DC00B2AD12
:0EB1DE00902101E0FB53130FBB0920902101CB
:07B1EC00E0FBBB59028016D5
:0DB1F300902101E054F0F0902101E0FB906C
:09B20000210174102BF002B2A22E
:0AB20900902101E0FBBB5902800315
:03B2130002B298EC
:0EB21600902101E0902103E0FB53130FBB09D0
:0BB224001F902103E0FBBB59028015C6
:0DB22F00902103E054F0F0902103E0FB902B
:08B23C00210374102BF0805E69
:0EB24400902103E0FBBB5940902103E4F09001
:0EB252002105E0FB53130FBB0915902105E009
:0EB2600054F0F0902105E0FB90210574102BB6
:03B26E00F080313C
:0EB27100902105E0FBBB2307902105E4F0804F
:01B27F0022AC
:0CB28000902105E0FB90210504F08016F1
:0CB28C00902103E0FB90210304F0800AF5
:0AB29800902101E0FB90210104F079
:07B2A200052CE4B52C0205A8
:01B2A9002D77
:03B2AA0002B1D01E
:07B2AD00052EE4B52E270574
:03B2B4002F8023C5
:0AB2B7007401B52E06E4B52F0280E5
:01B2C100028A
:02B2C2008016F4
:0EB2C400C01275D00012A09B75D010D012E4FD
:05B2D200F52AF52BF543
:03B2D7002EF52F22
:0EB2DA0090B52A75F080C01275D00012A22B1C
:05B2E80075D010D0122A
:0EB2ED00531210BA100F75D00012AE3775D084
:07B2FB000012AFD775D0105F
:0EB30200D0D0D001D000D007D006D005D004A6
:0DB31000D003D002D083D082D0F0D0E0D0A6
:02B31D002032DC
:0AB31F0012A25A90000112A272124D
:0EB32900A26C75A881902200E4F012A296D2C8
:03B33700B4D2B5D8
:0AB33A0012A26C90B53275F080127B
:0DB34400A22B12A14EAA82BA3007C002123D
:04B35100A2AAD002DA
:0AB35500BA3107C00212A927D00286
:0AB35F00BA3207C00212A098D00213
:0AB36900BA3307C00212A09BD00205
:0AB37300BA3407C00212A09ED002F7
:0AB37D00BA3507C00212A0A1D002E9
:08B38700BA37B012AE3780ABFB
:0DB44200416E6F2830302D3939293A200035
:0DB44F004D65732830302D3132293A200030
:0DB45C004469612830302D3331293A200039
:0EB4690044696153656D2830312D3037293A22
:01B4770000D4
:0EB47800486F72612830302D3233293A20009F
:0DB486004D696E2830302D3539293A2000EF
:0DB493005365672830302D3539293A2000E7
:0CB4A0005175616E746F73206D6C3F007D
:0DB4AC0028303030302D39393939293A0037
:0EB4B900486F7261416C2830302D3233293AD1
:01B4C7000084
:0EB4C8004D696E416C2830302D3539293A20FF
:01B4D6000075
:0EB4D700536567416C2830302D3539293A20F5
:01B4E5000066
:0EB4E60041746976617220616C61726D653F20
:01B4F4000057
:0CB4F500303D53696D2F313D4EE36F0078
:07B5010050726F6E746F00C1
:02B508002F0012
:02B50A0020001F
:04B50C00444F4D005B
:04B510005345470058
:04B514005445520048
:04B518005155410048
:04B51C00515549003C
:04B520005345580037
:04B52400534142004D
:02B528003A00E7
:08B52A00414C41524D45210046
:09B532004573636F6C68613A0017
:05B38F007A10E4FBFC54
:0EB39400E58225E0F582E58333F583EB33FB9C
:0AB3A200EC33FCEB9508F5F0EC9598
:09B3AC00094006FCABF0438201EC
:03B3B500DADD22BC
:06A03A00E478FFF6D8FDFA
:08A018007900E94400601B7AA5
:05A020000090B53B7843
:03A025000075A023
:0AA0280000E493F2A308B80002055B
:08A03200A0D9F4DAF275A0FFD9
:0BB3B800E5828508F0A4C582C0F08586
:0AB3C30009F0A4D0F025F0C5838541
:08B3CD0008F0A42583F583229A
:08B3D500E508450960467A0114
:07B3DD00E50825E0F508E595
:09B3E40009334012F509E58295D8
:0AB3ED0008E583950940030A80E695
:03B3F700C3E509A2
:07B3FA0013F509E50813F546
:01B401000842
:0AB40200C3E5829508F5F0E5839597
:08B40C00094005F58385F0827B
:07B41400C3E50913F509E58A
:06B41B000813F508DAE158
:01B421002208
:08A040007800E84400600A7991
:03A048000075A000
:06A04B0000E4F309D8FC5B
:08A051007800E84400600C797E
:0BA0590000900000E4F0A3D8FCD9FA4E
:03A00B0075813824
:0AA00E0012B43EE582600302A006D2
:0EB4220020F71430F6148883A88220F507E680
:06B43000A88375830022D1
:03B43600E280F7BA
:03B43900E4932277
:02B43C00E0220C
:04B43E0075820022F1
:00000001FF
